{
  "contractName": "Vaccine",
  "abi": [
    {
      "constant": true,
      "inputs": [],
      "name": "message",
      "outputs": [
        {
          "name": "",
          "type": "string"
        }
      ],
      "payable": false,
      "stateMutability": "view",
      "type": "function",
      "signature": "0xe21f37ce"
    },
    {
      "constant": false,
      "inputs": [
        {
          "name": "name",
          "type": "string"
        },
        {
          "name": "birthday",
          "type": "uint256"
        },
        {
          "name": "vaccine_type",
          "type": "string"
        },
        {
          "name": "first_dose_date",
          "type": "uint256"
        },
        {
          "name": "secord_dose_date",
          "type": "uint256"
        }
      ],
      "name": "addUser",
      "outputs": [],
      "payable": false,
      "stateMutability": "nonpayable",
      "type": "function",
      "signature": "0x11cd0c8a"
    },
    {
      "constant": true,
      "inputs": [
        {
          "name": "name",
          "type": "string"
        },
        {
          "name": "birthday",
          "type": "uint256"
        }
      ],
      "name": "findUser",
      "outputs": [
        {
          "name": "",
          "type": "string"
        }
      ],
      "payable": false,
      "stateMutability": "view",
      "type": "function",
      "signature": "0xd9c8976f"
    },
    {
      "constant": true,
      "inputs": [
        {
          "name": "name",
          "type": "string"
        },
        {
          "name": "birthday",
          "type": "uint256"
        }
      ],
      "name": "findUserIndex",
      "outputs": [
        {
          "name": "",
          "type": "bool"
        },
        {
          "name": "",
          "type": "uint256"
        }
      ],
      "payable": false,
      "stateMutability": "view",
      "type": "function",
      "signature": "0x48b6342c"
    }
  ],
  "bytecode": "0x608060405234801561001057600080fd5b50610adb806100206000396000f3fe608060405260043610610062576000357c0100000000000000000000000000000000000000000000000000000000900463ffffffff16806311cd0c8a1461006757806348b6342c14610090578063d9c8976f146100ce578063e21f37ce1461010b575b600080fd5b34801561007357600080fd5b5061008e60048036036100899190810190610821565b610136565b005b34801561009c57600080fd5b506100b760048036036100b291908101906107cd565b6101f9565b6040516100c5929190610952565b60405180910390f35b3480156100da57600080fd5b506100f560048036036100f091908101906107cd565b6103c6565b604051610102919061099d565b60405180910390f35b34801561011757600080fd5b506101206105f0565b60405161012d919061097b565b60405180910390f35b61013e61068e565b60a0604051908101604052808781526020018681526020018581526020018481526020018381525090506001819080600181540180825580915050906001820390600052602060002090600502016000909192909190915060008201518160000190805190602001906101b29291906106be565b506020820151816001015560408201518160020190805190602001906101d99291906106be565b506060820151816003015560808201518160040155505050505050505050565b60008060008090505b6001805490508110156103b35760018181548110151561021e57fe5b9060005260206000209060050201600001604051602001808280546001816001161561010002031660029004801561028d5780601f1061026b57610100808354040283529182019161028d565b820191906000526020600020905b815481529060010190602001808311610279575b505091505060405160208183030381529060405280519060200120856040516020018082805190602001908083835b6020831015156102e157805182526020820191506020810190506020830392506102bc565b6001836020036101000a03801982511681845116808217855250505050505090500191505060405160208183030381529060405280519060200120148015610394575060018181548110151561033357fe5b9060005260206000209060050201600101546040516020018082815260200191505060405160208183030381529060405280519060200120846040516020018082815260200191505060405160208183030381529060405280519060200120145b156103a65760018192509250506103bf565b8080600101915050610202565b50600080809050915091505b9250929050565b606060008090505b6001805490508110156105b0576001818154811015156103ea57fe5b906000526020600020906005020160000160405160200180828054600181600116156101000203166002900480156104595780601f10610437576101008083540402835291820191610459565b820191906000526020600020905b815481529060010190602001808311610445575b505091505060405160208183030381529060405280519060200120846040516020018082805190602001908083835b6020831015156104ad5780518252602082019150602081019050602083039250610488565b6001836020036101000a0380198251168184511680821785525050505050509050019150506040516020818303038152906040528051906020012014801561056057506001818154811015156104ff57fe5b9060005260206000209060050201600101546040516020018082815260200191505060405160208183030381529060405280519060200120836040516020018082815260200191505060405160208183030381529060405280519060200120145b156105a3576040805190810160405280600581526020017f666f756e640000000000000000000000000000000000000000000000000000008152509150506105ea565b80806001019150506103ce565b506040805190810160405280600981526020017f6e6f7420666f756e64000000000000000000000000000000000000000000000081525090505b92915050565b60008054600181600116156101000203166002900480601f0160208091040260200160405190810160405280929190818152602001828054600181600116156101000203166002900480156106865780601f1061065b57610100808354040283529160200191610686565b820191906000526020600020905b81548152906001019060200180831161066957829003601f168201915b505050505081565b60a06040519081016040528060608152602001600081526020016060815260200160008152602001600081525090565b828054600181600116156101000203166002900490600052602060002090601f016020900481019282601f106106ff57805160ff191683800117855561072d565b8280016001018555821561072d579182015b8281111561072c578251825591602001919060010190610711565b5b50905061073a919061073e565b5090565b61076091905b8082111561075c576000816000905550600101610744565b5090565b90565b600082601f830112151561077657600080fd5b8135610789610784826109ec565b6109bf565b915080825260208301602083018583830111156107a557600080fd5b6107b0838284610a4e565b50505092915050565b60006107c58235610a44565b905092915050565b600080604083850312156107e057600080fd5b600083013567ffffffffffffffff8111156107fa57600080fd5b61080685828601610763565b9250506020610817858286016107b9565b9150509250929050565b600080600080600060a0868803121561083957600080fd5b600086013567ffffffffffffffff81111561085357600080fd5b61085f88828901610763565b9550506020610870888289016107b9565b945050604086013567ffffffffffffffff81111561088d57600080fd5b61089988828901610763565b93505060606108aa888289016107b9565b92505060806108bb888289016107b9565b9150509295509295909350565b6108d181610a2e565b82525050565b60006108e282610a23565b8084526108f6816020860160208601610a5d565b6108ff81610a90565b602085010191505092915050565b600061091882610a18565b80845261092c816020860160208601610a5d565b61093581610a90565b602085010191505092915050565b61094c81610a3a565b82525050565b600060408201905061096760008301856108c8565b6109746020830184610943565b9392505050565b60006020820190508181036000830152610995818461090d565b905092915050565b600060208201905081810360008301526109b781846108d7565b905092915050565b6000604051905081810181811067ffffffffffffffff821117156109e257600080fd5b8060405250919050565b600067ffffffffffffffff821115610a0357600080fd5b601f19601f8301169050602081019050919050565b600081519050919050565b600081519050919050565b60008115159050919050565b6000819050919050565b6000819050919050565b82818337600083830152505050565b60005b83811015610a7b578082015181840152602081019050610a60565b83811115610a8a576000848401525b50505050565b6000601f19601f830116905091905056fea265627a7a72305820dfc61041df180411842fa260317ea79c6d9e82d0a5d91c06d20bb2c5fa9433036c6578706572696d656e74616cf50037",
  "source": "pragma solidity >=0.4.22 <0.9.0;\r\npragma experimental ABIEncoderV2;\r\n\r\ncontract Vaccine {\r\n    string public message;\r\n    \r\n    struct User {\r\n        string name;\r\n        uint birthday;\r\n        string vaccine_type;\r\n        uint first_dose_date;\r\n        uint second_dose_date;\r\n    }\r\n    \r\n    struct Vacciene{\r\n        uint dose_dates;\r\n        string vaccine_type;\r\n    }\r\n    \r\n    User[] records;\r\n    \r\n     /*function addVaccine (User u, VaccineRecord v) public returns (bool) {\r\n        User memory temp_user = u;\r\n        VaccineRecord memory temp_v = v;\r\n        bool found;\r\n        uint index; \r\n        (found, index) = findUserIndex(temp_user.name, temp_user.birthday);\r\n        if(found){\r\n            User storage found_user = records[index];\r\n            found_user.doses = temp_v;\r\n            return true;\r\n        }else{\r\n            return false;\r\n        }\r\n    }*/\r\n    \r\n    \r\n    function addUser(string memory name, uint birthday, string memory vaccine_type, uint first_dose_date, uint secord_dose_date) public {\r\n        User memory newUser = User(name, birthday, vaccine_type, first_dose_date, secord_dose_date);\r\n        records.push(newUser);\r\n    }\r\n    \r\n    // Add first vaccine date?\r\n    // If multiple matches, return all matches?\r\n    function findUser(string memory name, uint birthday) public view returns (string memory){\r\n        for (uint i=0; i<records.length; i++){\r\n            if (keccak256(abi.encodePacked((name))) == keccak256(abi.encodePacked(records[i].name)) && \r\n                keccak256(abi.encodePacked((birthday))) == keccak256(abi.encodePacked(records[i].birthday))){\r\n                return \"found\";\r\n            }\r\n        }\r\n        \r\n        return \"not found\";\r\n    }\r\n\r\n     function findUserIndex(string memory name, uint birthday) public view returns (bool, uint){\r\n        for (uint i=0; i<records.length; i++){\r\n            if (keccak256(abi.encodePacked((name))) == keccak256(abi.encodePacked(records[i].name)) && \r\n                keccak256(abi.encodePacked((birthday))) == keccak256(abi.encodePacked(records[i].birthday))){\r\n                return (true, i);\r\n            }\r\n        }\r\n        return (false, 0);\r\n    }\r\n    \r\n}",
  "sourcePath": "C:/Users/clark/Desktop/demo/contracts/Vaccine.sol",
  "compiler": {
    "name": "solc",
    "version": "0.5.0+commit.1d4f565a.Emscripten.clang"
  },
  "schemaVersion": "3.0.1",
  "updatedAt": "2021-08-03T16:10:01.415Z",
  "devdoc": {
    "methods": {}
  },
  "userdoc": {
    "methods": {}
  }
}