{
  "contractName": "Vaccine",
  "abi": [
    {
      "constant": true,
      "inputs": [],
      "name": "message",
      "outputs": [
        {
          "name": "",
          "type": "string"
        }
      ],
      "payable": false,
      "stateMutability": "view",
      "type": "function",
      "signature": "0xe21f37ce"
    },
    {
      "constant": false,
      "inputs": [
        {
          "name": "name",
          "type": "string"
        },
        {
          "name": "birthday",
          "type": "uint256"
        },
        {
          "name": "vaxtypes",
          "type": "string[]"
        },
        {
          "name": "vaxdates",
          "type": "uint256[]"
        }
      ],
      "name": "addVaxxedUser",
      "outputs": [],
      "payable": false,
      "stateMutability": "nonpayable",
      "type": "function",
      "signature": "0xcfbe6bc3"
    },
    {
      "constant": false,
      "inputs": [
        {
          "name": "name",
          "type": "string"
        },
        {
          "name": "birthday",
          "type": "uint256"
        },
        {
          "name": "vaxtype",
          "type": "string"
        },
        {
          "name": "vaxdate",
          "type": "uint256"
        }
      ],
      "name": "addVaxToUser",
      "outputs": [],
      "payable": false,
      "stateMutability": "nonpayable",
      "type": "function",
      "signature": "0xfe8326a4"
    },
    {
      "constant": false,
      "inputs": [
        {
          "name": "name",
          "type": "string"
        },
        {
          "name": "birthday",
          "type": "uint256"
        },
        {
          "name": "vaccine_type",
          "type": "string"
        },
        {
          "name": "first_dose_date",
          "type": "uint256"
        },
        {
          "name": "second_dose_date",
          "type": "uint256"
        }
      ],
      "name": "addUser",
      "outputs": [],
      "payable": false,
      "stateMutability": "nonpayable",
      "type": "function",
      "signature": "0x11cd0c8a"
    },
    {
      "constant": true,
      "inputs": [
        {
          "name": "name",
          "type": "string"
        },
        {
          "name": "birthday",
          "type": "uint256"
        }
      ],
      "name": "findUser",
      "outputs": [
        {
          "components": [
            {
              "name": "name",
              "type": "string"
            },
            {
              "name": "birthday",
              "type": "uint256"
            },
            {
              "name": "vaccine_type",
              "type": "string"
            },
            {
              "name": "first_dose_date",
              "type": "uint256"
            },
            {
              "name": "second_dose_date",
              "type": "uint256"
            },
            {
              "name": "vaxtypes",
              "type": "string[]"
            },
            {
              "name": "vaxdates",
              "type": "uint256[]"
            }
          ],
          "name": "",
          "type": "tuple"
        }
      ],
      "payable": false,
      "stateMutability": "view",
      "type": "function",
      "signature": "0xd9c8976f"
    },
    {
      "constant": true,
      "inputs": [
        {
          "name": "name",
          "type": "string"
        },
        {
          "name": "birthday",
          "type": "uint256"
        }
      ],
      "name": "findUserIndex",
      "outputs": [
        {
          "name": "",
          "type": "uint256"
        }
      ],
      "payable": false,
      "stateMutability": "view",
      "type": "function",
      "signature": "0x48b6342c"
    }
  ],
  "bytecode": "0x608060405234801561001057600080fd5b50611bcb806100206000396000f3fe608060405260043610610078576000357c0100000000000000000000000000000000000000000000000000000000900463ffffffff16806311cd0c8a1461007d57806348b6342c146100a6578063cfbe6bc3146100e3578063d9c8976f1461010c578063e21f37ce14610149578063fe8326a414610174575b600080fd5b34801561008957600080fd5b506100a4600480360361009f919081019061173b565b61019d565b005b3480156100b257600080fd5b506100cd60048036036100c891908101906115a9565b6102a0565b6040516100da91906119e5565b60405180910390f35b3480156100ef57600080fd5b5061010a600480360361010591908101906115fd565b610461565b005b34801561011857600080fd5b50610133600480360361012e91908101906115a9565b610666565b60405161014091906119c3565b60405180910390f35b34801561015557600080fd5b5061015e610b01565b60405161016b91906119a1565b60405180910390f35b34801561018057600080fd5b5061019b600480360361019691908101906116a8565b610b9f565b005b6101a56110bd565b85816000018190525084816020018181525050838160400181905250828160600181815250508181608001818152505060018190806001815401808255809150509060018203906000526020600020906007020160009091929091909150600082015181600001908051906020019061021f9291906110fb565b506020820151816001015560408201518160020190805190602001906102469291906110fb565b50606082015181600301556080820151816004015560a082015181600501908051906020019061027792919061117b565b5060c08201518160060190805190602001906102949291906111db565b50505050505050505050565b600080600090505b600180549050811015610455576001818154811015156102c457fe5b906000526020600020906007020160000160405160200180828054600181600116156101000203166002900480156103335780601f10610311576101008083540402835291820191610333565b820191906000526020600020905b81548152906001019060200180831161031f575b505091505060405160208183030381529060405280519060200120846040516020018082805190602001908083835b6020831015156103875780518252602082019150602081019050602083039250610362565b6001836020036101000a0380198251168184511680821785525050505050509050019150506040516020818303038152906040528051906020012014801561043a57506001818154811015156103d957fe5b9060005260206000209060070201600101546040516020018082815260200191505060405160208183030381529060405280519060200120836040516020018082815260200191505060405160208183030381529060405280519060200120145b15610448578091505061045b565b80806001019150506102a8565b50600090505b92915050565b6104696110bd565b8481600001819052508381602001818152505082516040519080825280602002602001820160405280156104b157816020015b606081526020019060019003908161049c5790505b508160a0018190525060008090505b835181101561050d5783818151811015156104d757fe5b906020019060200201518260a00151828151811015156104f357fe5b9060200190602002018190525080806001019150506104c0565b50815160405190808252806020026020018201604052801561053e5781602001602082028038833980820191505090505b508160c0018190525060008090505b825181101561059b57828181518110151561056457fe5b906020019060200201518260c001518281518110151561058057fe5b9060200190602002018181525050808060010191505061054d565b506001819080600181540180825580915050906001820390600052602060002090600702016000909192909190915060008201518160000190805190602001906105e69291906110fb565b5060208201518160010155604082015181600201908051906020019061060d9291906110fb565b50606082015181600301556080820151816004015560a082015181600501908051906020019061063e92919061117b565b5060c082015181600601908051906020019061065b9291906111db565b505050505050505050565b61066e6110bd565b6106766110bd565b60008090505b600180549050811015610af55760018181548110151561069857fe5b906000526020600020906007020160000160405160200180828054600181600116156101000203166002900480156107075780601f106106e5576101008083540402835291820191610707565b820191906000526020600020905b8154815290600101906020018083116106f3575b505091505060405160208183030381529060405280519060200120856040516020018082805190602001908083835b60208310151561075b5780518252602082019150602081019050602083039250610736565b6001836020036101000a0380198251168184511680821785525050505050509050019150506040516020818303038152906040528051906020012014801561080e57506001818154811015156107ad57fe5b9060005260206000209060070201600101546040516020018082815260200191505060405160208183030381529060405280519060200120846040516020018082815260200191505060405160208183030381529060405280519060200120145b15610ae85760018181548110151561082257fe5b906000526020600020906007020160e06040519081016040529081600082018054600181600116156101000203166002900480601f0160208091040260200160405190810160405280929190818152602001828054600181600116156101000203166002900480156108d55780601f106108aa576101008083540402835291602001916108d5565b820191906000526020600020905b8154815290600101906020018083116108b857829003601f168201915b5050505050815260200160018201548152602001600282018054600181600116156101000203166002900480601f0160208091040260200160405190810160405280929190818152602001828054600181600116156101000203166002900480156109815780601f1061095657610100808354040283529160200191610981565b820191906000526020600020905b81548152906001019060200180831161096457829003601f168201915b50505050508152602001600382015481526020016004820154815260200160058201805480602002602001604051908101604052809291908181526020016000905b82821015610a7f578382906000526020600020018054600181600116156101000203166002900480601f016020809104026020016040519081016040528092919081815260200182805460018160011615610100020316600290048015610a6b5780601f10610a4057610100808354040283529160200191610a6b565b820191906000526020600020905b815481529060010190602001808311610a4e57829003601f168201915b5050505050815260200190600101906109c3565b50505050815260200160068201805480602002602001604051908101604052809291908181526020018280548015610ad657602002820191906000526020600020905b815481526020019060010190808311610ac2575b50505050508152505092505050610afb565b808060010191505061067c565b50809150505b92915050565b60008054600181600116156101000203166002900480601f016020809104026020016040519081016040528092919081815260200182805460018160011615610100020316600290048015610b975780601f10610b6c57610100808354040283529160200191610b97565b820191906000526020600020905b815481529060010190602001808311610b7a57829003601f168201915b505050505081565b6000610bab85856102a0565b90506060600182815481101515610bbe57fe5b906000526020600020906007020160050180549050604051908082528060200260200182016040528015610c0657816020015b6060815260200190600190039081610bf15790505b50905060008090505b600183815481101515610c1e57fe5b906000526020600020906007020160050180549050811015610d3257600183815481101515610c4957fe5b906000526020600020906007020160050181815481101515610c6757fe5b906000526020600020018054600181600116156101000203166002900480601f016020809104026020016040519081016040528092919081815260200182805460018160011615610100020316600290048015610d055780601f10610cda57610100808354040283529160200191610d05565b820191906000526020600020905b815481529060010190602001808311610ce857829003601f168201915b50505050508282815181101515610d1857fe5b906020019060200201819052508080600101915050610c0f565b506001815101604051908082528060200260200182016040528015610d6b57816020015b6060815260200190600190039081610d565790505b50600183815481101515610d7b57fe5b90600052602060002090600702016005019080519060200190610d9f929190611228565b5060008090505b8151811015610e1f578181815181101515610dbd57fe5b90602001906020020151600184815481101515610dd657fe5b906000526020600020906007020160050182815481101515610df457fe5b906000526020600020019080519060200190610e11929190611288565b508080600101915050610da6565b5083600183815481101515610e3057fe5b906000526020600020906007020160050160018085815481101515610e5157fe5b90600052602060002090600702016005018054905003815481101515610e7357fe5b906000526020600020019080519060200190610e90929190611288565b506060600183815481101515610ea257fe5b906000526020600020906007020160060180549050604051908082528060200260200182016040528015610ee55781602001602082028038833980820191505090505b50905060008090505b600184815481101515610efd57fe5b906000526020600020906007020160060180549050811015610f7a57600184815481101515610f2857fe5b906000526020600020906007020160060181815481101515610f4657fe5b90600052602060002001548282815181101515610f5f57fe5b90602001906020020181815250508080600101915050610eee565b506001815101604051908082528060200260200182016040528015610fae5781602001602082028038833980820191505090505b50600184815481101515610fbe57fe5b90600052602060002090600702016006019080519060200190610fe2929190611308565b5060008090505b815181101561105257818181518110151561100057fe5b9060200190602002015160018581548110151561101957fe5b90600052602060002090600702016006018281548110151561103757fe5b90600052602060002001819055508080600101915050610fe9565b508360018481548110151561106357fe5b90600052602060002090600702016006016001808681548110151561108457fe5b906000526020600020906007020160060180549050038154811015156110a657fe5b906000526020600020018190555050505050505050565b60e060405190810160405280606081526020016000815260200160608152602001600081526020016000815260200160608152602001606081525090565b828054600181600116156101000203166002900490600052602060002090601f016020900481019282601f1061113c57805160ff191683800117855561116a565b8280016001018555821561116a579182015b8281111561116957825182559160200191906001019061114e565b5b5090506111779190611355565b5090565b8280548282559060005260206000209081019282156111ca579160200282015b828111156111c95782518290805190602001906111b99291906110fb565b509160200191906001019061119b565b5b5090506111d7919061137a565b5090565b828054828255906000526020600020908101928215611217579160200282015b828111156112165782518255916020019190600101906111fb565b5b5090506112249190611355565b5090565b828054828255906000526020600020908101928215611277579160200282015b828111156112765782518290805190602001906112669291906110fb565b5091602001919060010190611248565b5b509050611284919061137a565b5090565b828054600181600116156101000203166002900490600052602060002090601f016020900481019282601f106112c957805160ff19168380011785556112f7565b828001600101855582156112f7579182015b828111156112f65782518255916020019190600101906112db565b5b5090506113049190611355565b5090565b828054828255906000526020600020908101928215611344579160200282015b82811115611343578251825591602001919060010190611328565b5b5090506113519190611355565b5090565b61137791905b8082111561137357600081600090555060010161135b565b5090565b90565b6113a391905b8082111561139f576000818161139691906113a6565b50600101611380565b5090565b90565b50805460018160011615610100020316600290046000825580601f106113cc57506113eb565b601f0160209004906000526020600020908101906113ea9190611355565b5b50565b600082601f830112151561140157600080fd5b813561141461140f82611a2d565b611a00565b9150818183526020840193506020810190508360005b8381101561145a578135860161144088826114e9565b84526020840193506020830192505060018101905061142a565b5050505092915050565b600082601f830112151561147757600080fd5b813561148a61148582611a55565b611a00565b915081818352602084019350602081019050838560208402820111156114af57600080fd5b60005b838110156114df57816114c58882611595565b8452602084019350602083019250506001810190506114b2565b5050505092915050565b600082601f83011215156114fc57600080fd5b813561150f61150a82611a7d565b611a00565b9150808252602083016020830185838301111561152b57600080fd5b611536838284611b3e565b50505092915050565b600082601f830112151561155257600080fd5b813561156561156082611aa9565b611a00565b9150808252602083016020830185838301111561158157600080fd5b61158c838284611b3e565b50505092915050565b60006115a18235611b34565b905092915050565b600080604083850312156115bc57600080fd5b600083013567ffffffffffffffff8111156115d657600080fd5b6115e28582860161153f565b92505060206115f385828601611595565b9150509250929050565b6000806000806080858703121561161357600080fd5b600085013567ffffffffffffffff81111561162d57600080fd5b6116398782880161153f565b945050602061164a87828801611595565b935050604085013567ffffffffffffffff81111561166757600080fd5b611673878288016113ee565b925050606085013567ffffffffffffffff81111561169057600080fd5b61169c87828801611464565b91505092959194509250565b600080600080608085870312156116be57600080fd5b600085013567ffffffffffffffff8111156116d857600080fd5b6116e48782880161153f565b94505060206116f587828801611595565b935050604085013567ffffffffffffffff81111561171257600080fd5b61171e8782880161153f565b925050606061172f87828801611595565b91505092959194509250565b600080600080600060a0868803121561175357600080fd5b600086013567ffffffffffffffff81111561176d57600080fd5b6117798882890161153f565b955050602061178a88828901611595565b945050604086013567ffffffffffffffff8111156117a757600080fd5b6117b38882890161153f565b93505060606117c488828901611595565b92505060806117d588828901611595565b9150509295509295909350565b60006117ed82611aef565b8084526020840193508360208202850161180685611ad5565b60005b8481101561183f5783830388526118218383516118ab565b925061182c82611b10565b9150602088019750600181019050611809565b508196508694505050505092915050565b600061185b82611afa565b80845260208401935061186d83611ae2565b60005b8281101561189f57611883868351611992565b61188c82611b1d565b9150602086019550600181019050611870565b50849250505092915050565b60006118b682611b05565b8084526118ca816020860160208601611b4d565b6118d381611b80565b602085010191505092915050565b600060e08301600083015184820360008601526118fe82826118ab565b91505060208301516119136020860182611992565b506040830151848203604086015261192b82826118ab565b91505060608301516119406060860182611992565b5060808301516119536080860182611992565b5060a083015184820360a086015261196b82826117e2565b91505060c083015184820360c08601526119858282611850565b9150508091505092915050565b61199b81611b2a565b82525050565b600060208201905081810360008301526119bb81846118ab565b905092915050565b600060208201905081810360008301526119dd81846118e1565b905092915050565b60006020820190506119fa6000830184611992565b92915050565b6000604051905081810181811067ffffffffffffffff82111715611a2357600080fd5b8060405250919050565b600067ffffffffffffffff821115611a4457600080fd5b602082029050602081019050919050565b600067ffffffffffffffff821115611a6c57600080fd5b602082029050602081019050919050565b600067ffffffffffffffff821115611a9457600080fd5b601f19601f8301169050602081019050919050565b600067ffffffffffffffff821115611ac057600080fd5b601f19601f8301169050602081019050919050565b6000602082019050919050565b6000602082019050919050565b600081519050919050565b600081519050919050565b600081519050919050565b6000602082019050919050565b6000602082019050919050565b6000819050919050565b6000819050919050565b82818337600083830152505050565b60005b83811015611b6b578082015181840152602081019050611b50565b83811115611b7a576000848401525b50505050565b6000601f19601f830116905091905056fea265627a7a72305820d78896b5a031dbdb2ddd7808c6d60e30191462d7f23bc88c17db132d0801f3566c6578706572696d656e74616cf50037",
  "source": "pragma solidity >=0.4.22 <0.9.0;\r\npragma experimental ABIEncoderV2;\r\n\r\ncontract Vaccine {\r\n    string public message;\r\n    \r\n    struct User {\r\n        string name;\r\n        uint birthday;\r\n        string vaccine_type;\r\n        uint first_dose_date;\r\n        uint second_dose_date;\r\n        string[] vaxtypes;\r\n        uint[] vaxdates;\r\n    }\r\n    \r\n    User[] records;\r\n\r\n    function addVaxxedUser(string memory name, uint birthday, string[] memory vaxtypes, uint[] memory vaxdates) public {\r\n        User memory newUser;\r\n        newUser.name = name;\r\n        newUser.birthday = birthday;\r\n        newUser.vaxtypes = new string[](vaxtypes.length);\r\n        for(uint i = 0; i< vaxtypes.length;i++){\r\n            newUser.vaxtypes[i] = vaxtypes[i];\r\n        }\r\n        newUser.vaxdates = new uint[](vaxdates.length);\r\n        for(uint i = 0; i< vaxdates.length;i++){\r\n            newUser.vaxdates[i] = vaxdates[i];\r\n        }\r\n        records.push(newUser);\r\n    }\r\n\r\n    function addVaxToUser(string memory name, uint birthday, string memory vaxtype, uint vaxdate) public {\r\n        uint i = findUserIndex(name, birthday);\r\n        \r\n        string[] memory temp_vaxtypes = new string[](records[i].vaxtypes.length);\r\n        for(uint j = 0; j < records[i].vaxtypes.length; j++){\r\n            temp_vaxtypes[j] = records[i].vaxtypes[j];\r\n        }\r\n        records[i].vaxtypes = new string[](temp_vaxtypes.length+1);\r\n        for(uint j = 0; j < temp_vaxtypes.length; j++){\r\n            records[i].vaxtypes[j] = temp_vaxtypes[j];\r\n        }\r\n        records[i].vaxtypes[records[i].vaxtypes.length-1] = vaxtype;\r\n\r\n        uint[] memory temp_vaxdates = new uint[](records[i].vaxdates.length);\r\n        for(uint j = 0; j < records[i].vaxdates.length; j++){\r\n            temp_vaxdates[j] = records[i].vaxdates[j];\r\n        }\r\n        records[i].vaxdates = new uint[](temp_vaxdates.length+1);\r\n        for(uint j = 0; j < temp_vaxdates.length; j++){\r\n            records[i].vaxdates[j] = temp_vaxdates[j];\r\n        }\r\n        records[i].vaxdates[records[i].vaxdates.length-1] = vaxdate;\r\n\r\n    }\r\n    \r\n    function addUser(string memory name, uint birthday, string memory vaccine_type, uint first_dose_date, uint second_dose_date) public {\r\n        User memory newUser;\r\n        newUser.name = name;\r\n        newUser.birthday = birthday;\r\n        newUser.vaccine_type = vaccine_type;\r\n        newUser.first_dose_date = first_dose_date;\r\n        newUser.second_dose_date = second_dose_date;\r\n        records.push(newUser);\r\n    }\r\n    \r\n    // Add first vaccine date?\r\n    // If multiple matches, return all matches?\r\n    function findUser(string memory name, uint birthday) public view returns (User memory){\r\n        User memory ret;\r\n        for (uint i=0; i<records.length; i++){\r\n            if (keccak256(abi.encodePacked((name))) == keccak256(abi.encodePacked(records[i].name)) && \r\n                keccak256(abi.encodePacked((birthday))) == keccak256(abi.encodePacked(records[i].birthday))){\r\n                return records[i];\r\n            }\r\n        }\r\n        return ret;\r\n    }\r\n\r\n     function findUserIndex(string memory name, uint birthday) public view returns (uint){\r\n        for (uint i=0; i<records.length; i++){\r\n            if (keccak256(abi.encodePacked((name))) == keccak256(abi.encodePacked(records[i].name)) && \r\n                keccak256(abi.encodePacked((birthday))) == keccak256(abi.encodePacked(records[i].birthday))){\r\n                return (i);\r\n            }\r\n        }\r\n        return (0);\r\n    }\r\n    \r\n}",
  "sourcePath": "C:/Users/clark/Desktop/demo2/vaccine_app_demo/contracts/Vaccine.sol",
  "compiler": {
    "name": "solc",
    "version": "0.5.0+commit.1d4f565a.Emscripten.clang"
  },
  "schemaVersion": "3.0.1",
  "updatedAt": "2021-08-04T02:07:24.133Z",
  "devdoc": {
    "methods": {}
  },
  "userdoc": {
    "methods": {}
  }
}