{
  "contractName": "Vaccine",
  "abi": [
    {
      "constant": true,
      "inputs": [],
      "name": "message",
      "outputs": [
        {
          "name": "",
          "type": "string"
        }
      ],
      "payable": false,
      "stateMutability": "view",
      "type": "function",
      "signature": "0xe21f37ce"
    },
    {
      "constant": false,
      "inputs": [
        {
          "name": "name",
          "type": "string"
        },
        {
          "name": "birthday",
          "type": "uint256"
        },
        {
          "name": "vaxtypes",
          "type": "string[]"
        },
        {
          "name": "vaxdates",
          "type": "uint256[]"
        }
      ],
      "name": "addVaxxedUser",
      "outputs": [],
      "payable": false,
      "stateMutability": "nonpayable",
      "type": "function",
      "signature": "0xcfbe6bc3"
    },
    {
      "constant": false,
      "inputs": [
        {
          "name": "name",
          "type": "string"
        },
        {
          "name": "birthday",
          "type": "uint256"
        },
        {
          "name": "vaccine_type",
          "type": "string"
        },
        {
          "name": "first_dose_date",
          "type": "uint256"
        },
        {
          "name": "second_dose_date",
          "type": "uint256"
        }
      ],
      "name": "addUser",
      "outputs": [],
      "payable": false,
      "stateMutability": "nonpayable",
      "type": "function",
      "signature": "0x11cd0c8a"
    },
    {
      "constant": true,
      "inputs": [
        {
          "name": "name",
          "type": "string"
        },
        {
          "name": "birthday",
          "type": "uint256"
        }
      ],
      "name": "findUser",
      "outputs": [
        {
          "components": [
            {
              "name": "name",
              "type": "string"
            },
            {
              "name": "birthday",
              "type": "uint256"
            },
            {
              "name": "vaccine_type",
              "type": "string"
            },
            {
              "name": "first_dose_date",
              "type": "uint256"
            },
            {
              "name": "second_dose_date",
              "type": "uint256"
            },
            {
              "name": "vaxtypes",
              "type": "string[]"
            },
            {
              "name": "vaxdates",
              "type": "uint256[]"
            }
          ],
          "name": "",
          "type": "tuple"
        }
      ],
      "payable": false,
      "stateMutability": "view",
      "type": "function",
      "signature": "0xd9c8976f"
    },
    {
      "constant": true,
      "inputs": [
        {
          "name": "name",
          "type": "string"
        },
        {
          "name": "birthday",
          "type": "uint256"
        }
      ],
      "name": "findUserIndex",
      "outputs": [
        {
          "name": "",
          "type": "bool"
        },
        {
          "name": "",
          "type": "uint256"
        }
      ],
      "payable": false,
      "stateMutability": "view",
      "type": "function",
      "signature": "0x48b6342c"
    }
  ],
  "bytecode": "0x608060405234801561001057600080fd5b506114ef806100206000396000f3fe60806040526004361061006d576000357c0100000000000000000000000000000000000000000000000000000000900463ffffffff16806311cd0c8a1461007257806348b6342c1461009b578063cfbe6bc3146100d9578063d9c8976f14610102578063e21f37ce1461013f575b600080fd5b34801561007e57600080fd5b5061009960048036036100949190810190611036565b61016a565b005b3480156100a757600080fd5b506100c260048036036100bd9190810190610f37565b61026d565b6040516100d09291906112ab565b60405180910390f35b3480156100e557600080fd5b5061010060048036036100fb9190810190610f8b565b61043a565b005b34801561010e57600080fd5b5061012960048036036101249190810190610f37565b61063f565b60405161013691906112f6565b60405180910390f35b34801561014b57600080fd5b50610154610ada565b60405161016191906112d4565b60405180910390f35b610172610b78565b8581600001819052508481602001818152505083816040018190525082816060018181525050818160800181815250506001819080600181540180825580915050906001820390600052602060002090600702016000909192909190915060008201518160000190805190602001906101ec929190610bb6565b50602082015181600101556040820151816002019080519060200190610213929190610bb6565b50606082015181600301556080820151816004015560a0820151816005019080519060200190610244929190610c36565b5060c0820151816006019080519060200190610261929190610c96565b50505050505050505050565b60008060008090505b6001805490508110156104275760018181548110151561029257fe5b906000526020600020906007020160000160405160200180828054600181600116156101000203166002900480156103015780601f106102df576101008083540402835291820191610301565b820191906000526020600020905b8154815290600101906020018083116102ed575b505091505060405160208183030381529060405280519060200120856040516020018082805190602001908083835b6020831015156103555780518252602082019150602081019050602083039250610330565b6001836020036101000a0380198251168184511680821785525050505050509050019150506040516020818303038152906040528051906020012014801561040857506001818154811015156103a757fe5b9060005260206000209060070201600101546040516020018082815260200191505060405160208183030381529060405280519060200120846040516020018082815260200191505060405160208183030381529060405280519060200120145b1561041a576001819250925050610433565b8080600101915050610276565b50600080809050915091505b9250929050565b610442610b78565b84816000018190525083816020018181525050825160405190808252806020026020018201604052801561048a57816020015b60608152602001906001900390816104755790505b508160a0018190525060008090505b83518110156104e65783818151811015156104b057fe5b906020019060200201518260a00151828151811015156104cc57fe5b906020019060200201819052508080600101915050610499565b5081516040519080825280602002602001820160405280156105175781602001602082028038833980820191505090505b508160c0018190525060008090505b825181101561057457828181518110151561053d57fe5b906020019060200201518260c001518281518110151561055957fe5b90602001906020020181815250508080600101915050610526565b506001819080600181540180825580915050906001820390600052602060002090600702016000909192909190915060008201518160000190805190602001906105bf929190610bb6565b506020820151816001015560408201518160020190805190602001906105e6929190610bb6565b50606082015181600301556080820151816004015560a0820151816005019080519060200190610617929190610c36565b5060c0820151816006019080519060200190610634929190610c96565b505050505050505050565b610647610b78565b61064f610b78565b60008090505b600180549050811015610ace5760018181548110151561067157fe5b906000526020600020906007020160000160405160200180828054600181600116156101000203166002900480156106e05780601f106106be5761010080835404028352918201916106e0565b820191906000526020600020905b8154815290600101906020018083116106cc575b505091505060405160208183030381529060405280519060200120856040516020018082805190602001908083835b602083101515610734578051825260208201915060208101905060208303925061070f565b6001836020036101000a038019825116818451168082178552505050505050905001915050604051602081830303815290604052805190602001201480156107e7575060018181548110151561078657fe5b9060005260206000209060070201600101546040516020018082815260200191505060405160208183030381529060405280519060200120846040516020018082815260200191505060405160208183030381529060405280519060200120145b15610ac1576001818154811015156107fb57fe5b906000526020600020906007020160e06040519081016040529081600082018054600181600116156101000203166002900480601f0160208091040260200160405190810160405280929190818152602001828054600181600116156101000203166002900480156108ae5780601f10610883576101008083540402835291602001916108ae565b820191906000526020600020905b81548152906001019060200180831161089157829003601f168201915b5050505050815260200160018201548152602001600282018054600181600116156101000203166002900480601f01602080910402602001604051908101604052809291908181526020018280546001816001161561010002031660029004801561095a5780601f1061092f5761010080835404028352916020019161095a565b820191906000526020600020905b81548152906001019060200180831161093d57829003601f168201915b50505050508152602001600382015481526020016004820154815260200160058201805480602002602001604051908101604052809291908181526020016000905b82821015610a58578382906000526020600020018054600181600116156101000203166002900480601f016020809104026020016040519081016040528092919081815260200182805460018160011615610100020316600290048015610a445780601f10610a1957610100808354040283529160200191610a44565b820191906000526020600020905b815481529060010190602001808311610a2757829003601f168201915b50505050508152602001906001019061099c565b50505050815260200160068201805480602002602001604051908101604052809291908181526020018280548015610aaf57602002820191906000526020600020905b815481526020019060010190808311610a9b575b50505050508152505092505050610ad4565b8080600101915050610655565b50809150505b92915050565b60008054600181600116156101000203166002900480601f016020809104026020016040519081016040528092919081815260200182805460018160011615610100020316600290048015610b705780601f10610b4557610100808354040283529160200191610b70565b820191906000526020600020905b815481529060010190602001808311610b5357829003601f168201915b505050505081565b60e060405190810160405280606081526020016000815260200160608152602001600081526020016000815260200160608152602001606081525090565b828054600181600116156101000203166002900490600052602060002090601f016020900481019282601f10610bf757805160ff1916838001178555610c25565b82800160010185558215610c25579182015b82811115610c24578251825591602001919060010190610c09565b5b509050610c329190610ce3565b5090565b828054828255906000526020600020908101928215610c85579160200282015b82811115610c84578251829080519060200190610c74929190610bb6565b5091602001919060010190610c56565b5b509050610c929190610d08565b5090565b828054828255906000526020600020908101928215610cd2579160200282015b82811115610cd1578251825591602001919060010190610cb6565b5b509050610cdf9190610ce3565b5090565b610d0591905b80821115610d01576000816000905550600101610ce9565b5090565b90565b610d3191905b80821115610d2d5760008181610d249190610d34565b50600101610d0e565b5090565b90565b50805460018160011615610100020316600290046000825580601f10610d5a5750610d79565b601f016020900490600052602060002090810190610d789190610ce3565b5b50565b600082601f8301121515610d8f57600080fd5b8135610da2610d9d82611345565b611318565b9150818183526020840193506020810190508360005b83811015610de85781358601610dce8882610e77565b845260208401935060208301925050600181019050610db8565b5050505092915050565b600082601f8301121515610e0557600080fd5b8135610e18610e138261136d565b611318565b91508181835260208401935060208101905083856020840282011115610e3d57600080fd5b60005b83811015610e6d5781610e538882610f23565b845260208401935060208301925050600181019050610e40565b5050505092915050565b600082601f8301121515610e8a57600080fd5b8135610e9d610e9882611395565b611318565b91508082526020830160208301858383011115610eb957600080fd5b610ec4838284611462565b50505092915050565b600082601f8301121515610ee057600080fd5b8135610ef3610eee826113c1565b611318565b91508082526020830160208301858383011115610f0f57600080fd5b610f1a838284611462565b50505092915050565b6000610f2f8235611458565b905092915050565b60008060408385031215610f4a57600080fd5b600083013567ffffffffffffffff811115610f6457600080fd5b610f7085828601610ecd565b9250506020610f8185828601610f23565b9150509250929050565b60008060008060808587031215610fa157600080fd5b600085013567ffffffffffffffff811115610fbb57600080fd5b610fc787828801610ecd565b9450506020610fd887828801610f23565b935050604085013567ffffffffffffffff811115610ff557600080fd5b61100187828801610d7c565b925050606085013567ffffffffffffffff81111561101e57600080fd5b61102a87828801610df2565b91505092959194509250565b600080600080600060a0868803121561104e57600080fd5b600086013567ffffffffffffffff81111561106857600080fd5b61107488828901610ecd565b955050602061108588828901610f23565b945050604086013567ffffffffffffffff8111156110a257600080fd5b6110ae88828901610ecd565b93505060606110bf88828901610f23565b92505060806110d088828901610f23565b9150509295509295909350565b60006110e882611407565b80845260208401935083602082028501611101856113ed565b60005b8481101561113a57838303885261111c8383516111b5565b925061112782611428565b9150602088019750600181019050611104565b508196508694505050505092915050565b600061115682611412565b808452602084019350611168836113fa565b60005b8281101561119a5761117e86835161129c565b61118782611435565b915060208601955060018101905061116b565b50849250505092915050565b6111af81611442565b82525050565b60006111c08261141d565b8084526111d4816020860160208601611471565b6111dd816114a4565b602085010191505092915050565b600060e083016000830151848203600086015261120882826111b5565b915050602083015161121d602086018261129c565b506040830151848203604086015261123582826111b5565b915050606083015161124a606086018261129c565b50608083015161125d608086018261129c565b5060a083015184820360a086015261127582826110dd565b91505060c083015184820360c086015261128f828261114b565b9150508091505092915050565b6112a58161144e565b82525050565b60006040820190506112c060008301856111a6565b6112cd602083018461129c565b9392505050565b600060208201905081810360008301526112ee81846111b5565b905092915050565b6000602082019050818103600083015261131081846111eb565b905092915050565b6000604051905081810181811067ffffffffffffffff8211171561133b57600080fd5b8060405250919050565b600067ffffffffffffffff82111561135c57600080fd5b602082029050602081019050919050565b600067ffffffffffffffff82111561138457600080fd5b602082029050602081019050919050565b600067ffffffffffffffff8211156113ac57600080fd5b601f19601f8301169050602081019050919050565b600067ffffffffffffffff8211156113d857600080fd5b601f19601f8301169050602081019050919050565b6000602082019050919050565b6000602082019050919050565b600081519050919050565b600081519050919050565b600081519050919050565b6000602082019050919050565b6000602082019050919050565b60008115159050919050565b6000819050919050565b6000819050919050565b82818337600083830152505050565b60005b8381101561148f578082015181840152602081019050611474565b8381111561149e576000848401525b50505050565b6000601f19601f830116905091905056fea265627a7a72305820015d940948a87eaf7afdd3fe7f380ddb0e0cdc4de82d631fab4c6e73daf5b2f36c6578706572696d656e74616cf50037",
  "source": "pragma solidity >=0.4.22 <0.9.0;\r\npragma experimental ABIEncoderV2;\r\n\r\ncontract Vaccine {\r\n    string public message;\r\n    \r\n    struct User {\r\n        string name;\r\n        uint birthday;\r\n        string vaccine_type;\r\n        uint first_dose_date;\r\n        uint second_dose_date;\r\n        string[] vaxtypes;\r\n        uint[] vaxdates;\r\n    }\r\n    \r\n    User[] records;\r\n\r\n    function addVaxxedUser(string memory name, uint birthday, string[] memory vaxtypes, uint[] memory vaxdates) public {\r\n        User memory newUser;\r\n        newUser.name = name;\r\n        newUser.birthday = birthday;\r\n        newUser.vaxtypes = new string[](vaxtypes.length);\r\n        for(uint i = 0; i< vaxtypes.length;i++){\r\n            newUser.vaxtypes[i] = vaxtypes[i];\r\n        }\r\n        newUser.vaxdates = new uint[](vaxdates.length);\r\n        for(uint i = 0; i< vaxdates.length;i++){\r\n            newUser.vaxdates[i] = vaxdates[i];\r\n        }\r\n\r\n\r\n        /*for(uint i = 0; i<vaxtypes.length; i++){\r\n            string[] memory temp_vaxtypes[newUser.vaxtypes.length];\r\n            for(uint j = 0; j < newUser.vaxtypes.length; j++){\r\n                temp_vaxtypes[j] = newUser.vaxtypes[j];\r\n            }\r\n            newUser.vaxtypes = new string[](temp_vaxtypes.length+1);\r\n            for(uint j = 0; j < temp_vaxtypes.length; j++){\r\n                newUser.vaxtypes[j] = temp_vaxtypes[j];\r\n            }\r\n            newUser.vaxtypes[newUser.vaxtypes.length-1] = vaxtypes[i];\r\n        }*/\r\n        records.push(newUser);\r\n    }\r\n    \r\n    function addUser(string memory name, uint birthday, string memory vaccine_type, uint first_dose_date, uint second_dose_date) public {\r\n        User memory newUser;\r\n        newUser.name = name;\r\n        newUser.birthday = birthday;\r\n        newUser.vaccine_type = vaccine_type;\r\n        newUser.first_dose_date = first_dose_date;\r\n        newUser.second_dose_date = second_dose_date;\r\n        records.push(newUser);\r\n    }\r\n    \r\n    // Add first vaccine date?\r\n    // If multiple matches, return all matches?\r\n    function findUser(string memory name, uint birthday) public view returns (User memory){\r\n        User memory ret;\r\n        for (uint i=0; i<records.length; i++){\r\n            if (keccak256(abi.encodePacked((name))) == keccak256(abi.encodePacked(records[i].name)) && \r\n                keccak256(abi.encodePacked((birthday))) == keccak256(abi.encodePacked(records[i].birthday))){\r\n                return records[i];\r\n            }\r\n        }\r\n        return ret;\r\n    }\r\n\r\n     function findUserIndex(string memory name, uint birthday) public view returns (bool, uint){\r\n        for (uint i=0; i<records.length; i++){\r\n            if (keccak256(abi.encodePacked((name))) == keccak256(abi.encodePacked(records[i].name)) && \r\n                keccak256(abi.encodePacked((birthday))) == keccak256(abi.encodePacked(records[i].birthday))){\r\n                return (true, i);\r\n            }\r\n        }\r\n        return (false, 0);\r\n    }\r\n    \r\n}",
  "sourcePath": "C:/Users/clark/Desktop/demo2/vaccine_app_demo/contracts/Vaccine.sol",
  "compiler": {
    "name": "solc",
    "version": "0.5.0+commit.1d4f565a.Emscripten.clang"
  },
  "schemaVersion": "3.0.1",
  "updatedAt": "2021-08-04T01:48:25.752Z",
  "devdoc": {
    "methods": {}
  },
  "userdoc": {
    "methods": {}
  }
}