{
  "contractName": "Vaccine",
  "abi": [
    {
      "constant": true,
      "inputs": [],
      "name": "message",
      "outputs": [
        {
          "name": "",
          "type": "string"
        }
      ],
      "payable": false,
      "stateMutability": "view",
      "type": "function",
      "signature": "0xe21f37ce"
    },
    {
      "constant": false,
      "inputs": [
        {
          "name": "name",
          "type": "string"
        },
        {
          "name": "birthday",
          "type": "string"
        },
        {
          "name": "vaxtypes",
          "type": "string[]"
        },
        {
          "name": "vaxdates",
          "type": "string[]"
        }
      ],
      "name": "addVaxxedUser",
      "outputs": [],
      "payable": false,
      "stateMutability": "nonpayable",
      "type": "function",
      "signature": "0x11d2a70a"
    },
    {
      "constant": false,
      "inputs": [
        {
          "name": "name",
          "type": "string"
        },
        {
          "name": "birthday",
          "type": "string"
        },
        {
          "name": "vaxtype",
          "type": "string"
        },
        {
          "name": "vaxdate",
          "type": "string"
        }
      ],
      "name": "addVaxToUser",
      "outputs": [],
      "payable": false,
      "stateMutability": "nonpayable",
      "type": "function",
      "signature": "0x7d5c2f8d"
    },
    {
      "constant": true,
      "inputs": [
        {
          "name": "name",
          "type": "string"
        },
        {
          "name": "birthday",
          "type": "string"
        }
      ],
      "name": "findUser",
      "outputs": [
        {
          "components": [
            {
              "name": "name",
              "type": "string"
            },
            {
              "name": "birthday",
              "type": "string"
            },
            {
              "name": "vaccine_type",
              "type": "string"
            },
            {
              "name": "vaxtypes",
              "type": "string[]"
            },
            {
              "name": "vaxdates",
              "type": "string[]"
            }
          ],
          "name": "",
          "type": "tuple"
        }
      ],
      "payable": false,
      "stateMutability": "view",
      "type": "function",
      "signature": "0x3aabe250"
    },
    {
      "constant": true,
      "inputs": [
        {
          "name": "name",
          "type": "string"
        },
        {
          "name": "birthday",
          "type": "string"
        }
      ],
      "name": "findUserIndex",
      "outputs": [
        {
          "name": "",
          "type": "uint256"
        }
      ],
      "payable": false,
      "stateMutability": "view",
      "type": "function",
      "signature": "0xbb8f1b7d"
    }
  ],
  "bytecode": "0x608060405234801561001057600080fd5b50611b51806100206000396000f3fe60806040526004361061006d576000357c0100000000000000000000000000000000000000000000000000000000900463ffffffff16806311d2a70a146100725780633aabe2501461009b5780637d5c2f8d146100d8578063bb8f1b7d14610101578063e21f37ce1461013e575b600080fd5b34801561007e57600080fd5b50610099600480360361009491908101906116b3565b610169565b005b3480156100a757600080fd5b506100c260048036036100bd9190810190611647565b610370565b6040516100cf91906119a0565b60405180910390f35b3480156100e457600080fd5b506100ff60048036036100fa9190810190611776565b6109bf565b005b34801561010d57600080fd5b5061012860048036036101239190810190611647565b610f9e565b60405161013591906119c2565b60405180910390f35b34801561014a57600080fd5b506101536111fe565b604051610160919061197e565b60405180910390f35b61017161129c565b84816000018190525083816020018190525082516040519080825280602002602001820160405280156101b857816020015b60608152602001906001900390816101a35790505b50816060018190525060008090505b83518110156102145783818151811015156101de57fe5b906020019060200201518260600151828151811015156101fa57fe5b9060200190602002018190525080806001019150506101c7565b50815160405190808252806020026020018201604052801561024a57816020015b60608152602001906001900390816102355790505b50816080018190525060008090505b82518110156102a657828181518110151561027057fe5b9060200190602002015182608001518281518110151561028c57fe5b906020019060200201819052508080600101915050610259565b506001819080600181540180825580915050906001820390600052602060002090600502016000909192909190915060008201518160000190805190602001906102f19291906112cc565b50602082015181600101908051906020019061030e9291906112cc565b50604082015181600201908051906020019061032b9291906112cc565b50606082015181600301908051906020019061034892919061134c565b50608082015181600401908051906020019061036592919061134c565b505050505050505050565b61037861129c565b61038061129c565b60008090505b6001805490508110156109b3576001818154811015156103a257fe5b906000526020600020906005020160000160405160200180828054600181600116156101000203166002900480156104115780601f106103ef576101008083540402835291820191610411565b820191906000526020600020905b8154815290600101906020018083116103fd575b505091505060405160208183030381529060405280519060200120856040516020018082805190602001908083835b6020831015156104655780518252602082019150602081019050602083039250610440565b6001836020036101000a038019825116818451168082178552505050505050905001915050604051602081830303815290604052805190602001201480156105b757506001818154811015156104b757fe5b906000526020600020906005020160010160405160200180828054600181600116156101000203166002900480156105265780601f10610504576101008083540402835291820191610526565b820191906000526020600020905b815481529060010190602001808311610512575b505091505060405160208183030381529060405280519060200120846040516020018082805190602001908083835b60208310151561057a5780518252602082019150602081019050602083039250610555565b6001836020036101000a03801982511681845116808217855250505050505090500191505060405160208183030381529060405280519060200120145b156109a6576001818154811015156105cb57fe5b906000526020600020906005020160a06040519081016040529081600082018054600181600116156101000203166002900480601f01602080910402602001604051908101604052809291908181526020018280546001816001161561010002031660029004801561067e5780601f106106535761010080835404028352916020019161067e565b820191906000526020600020905b81548152906001019060200180831161066157829003601f168201915b50505050508152602001600182018054600181600116156101000203166002900480601f0160208091040260200160405190810160405280929190818152602001828054600181600116156101000203166002900480156107205780601f106106f557610100808354040283529160200191610720565b820191906000526020600020905b81548152906001019060200180831161070357829003601f168201915b50505050508152602001600282018054600181600116156101000203166002900480601f0160208091040260200160405190810160405280929190818152602001828054600181600116156101000203166002900480156107c25780601f10610797576101008083540402835291602001916107c2565b820191906000526020600020905b8154815290600101906020018083116107a557829003601f168201915b5050505050815260200160038201805480602002602001604051908101604052809291908181526020016000905b828210156108ac578382906000526020600020018054600181600116156101000203166002900480601f0160208091040260200160405190810160405280929190818152602001828054600181600116156101000203166002900480156108985780601f1061086d57610100808354040283529160200191610898565b820191906000526020600020905b81548152906001019060200180831161087b57829003601f168201915b5050505050815260200190600101906107f0565b50505050815260200160048201805480602002602001604051908101604052809291908181526020016000905b82821015610995578382906000526020600020018054600181600116156101000203166002900480601f0160208091040260200160405190810160405280929190818152602001828054600181600116156101000203166002900480156109815780601f1061095657610100808354040283529160200191610981565b820191906000526020600020905b81548152906001019060200180831161096457829003601f168201915b5050505050815260200190600101906108d9565b5050505081525050925050506109b9565b8080600101915050610386565b50809150505b92915050565b60006109cb8585610f9e565b905060606001828154811015156109de57fe5b906000526020600020906005020160030180549050604051908082528060200260200182016040528015610a2657816020015b6060815260200190600190039081610a115790505b50905060008090505b600183815481101515610a3e57fe5b906000526020600020906005020160030180549050811015610b5257600183815481101515610a6957fe5b906000526020600020906005020160030181815481101515610a8757fe5b906000526020600020018054600181600116156101000203166002900480601f016020809104026020016040519081016040528092919081815260200182805460018160011615610100020316600290048015610b255780601f10610afa57610100808354040283529160200191610b25565b820191906000526020600020905b815481529060010190602001808311610b0857829003601f168201915b50505050508282815181101515610b3857fe5b906020019060200201819052508080600101915050610a2f565b506001815101604051908082528060200260200182016040528015610b8b57816020015b6060815260200190600190039081610b765790505b50600183815481101515610b9b57fe5b90600052602060002090600502016003019080519060200190610bbf9291906113ac565b5060008090505b8151811015610c3f578181815181101515610bdd57fe5b90602001906020020151600184815481101515610bf657fe5b906000526020600020906005020160030182815481101515610c1457fe5b906000526020600020019080519060200190610c3192919061140c565b508080600101915050610bc6565b5083600183815481101515610c5057fe5b906000526020600020906005020160030160018085815481101515610c7157fe5b90600052602060002090600502016003018054905003815481101515610c9357fe5b906000526020600020019080519060200190610cb092919061140c565b506060600183815481101515610cc257fe5b906000526020600020906005020160040180549050604051908082528060200260200182016040528015610d0a57816020015b6060815260200190600190039081610cf55790505b50905060008090505b600184815481101515610d2257fe5b906000526020600020906005020160040180549050811015610e3657600184815481101515610d4d57fe5b906000526020600020906005020160040181815481101515610d6b57fe5b906000526020600020018054600181600116156101000203166002900480601f016020809104026020016040519081016040528092919081815260200182805460018160011615610100020316600290048015610e095780601f10610dde57610100808354040283529160200191610e09565b820191906000526020600020905b815481529060010190602001808311610dec57829003601f168201915b50505050508282815181101515610e1c57fe5b906020019060200201819052508080600101915050610d13565b506001815101604051908082528060200260200182016040528015610e6f57816020015b6060815260200190600190039081610e5a5790505b50600184815481101515610e7f57fe5b90600052602060002090600502016004019080519060200190610ea39291906113ac565b5060008090505b8151811015610f23578181815181101515610ec157fe5b90602001906020020151600185815481101515610eda57fe5b906000526020600020906005020160040182815481101515610ef857fe5b906000526020600020019080519060200190610f1592919061140c565b508080600101915050610eaa565b5083600184815481101515610f3457fe5b906000526020600020906005020160040160018086815481101515610f5557fe5b90600052602060002090600502016004018054905003815481101515610f7757fe5b906000526020600020019080519060200190610f9492919061140c565b5050505050505050565b600080600090505b6001805490508110156111f257600181815481101515610fc257fe5b906000526020600020906005020160000160405160200180828054600181600116156101000203166002900480156110315780601f1061100f576101008083540402835291820191611031565b820191906000526020600020905b81548152906001019060200180831161101d575b505091505060405160208183030381529060405280519060200120846040516020018082805190602001908083835b6020831015156110855780518252602082019150602081019050602083039250611060565b6001836020036101000a038019825116818451168082178552505050505050905001915050604051602081830303815290604052805190602001201480156111d757506001818154811015156110d757fe5b906000526020600020906005020160010160405160200180828054600181600116156101000203166002900480156111465780601f10611124576101008083540402835291820191611146565b820191906000526020600020905b815481529060010190602001808311611132575b505091505060405160208183030381529060405280519060200120836040516020018082805190602001908083835b60208310151561119a5780518252602082019150602081019050602083039250611175565b6001836020036101000a03801982511681845116808217855250505050505090500191505060405160208183030381529060405280519060200120145b156111e557809150506111f8565b8080600101915050610fa6565b50600090505b92915050565b60008054600181600116156101000203166002900480601f0160208091040260200160405190810160405280929190818152602001828054600181600116156101000203166002900480156112945780601f1061126957610100808354040283529160200191611294565b820191906000526020600020905b81548152906001019060200180831161127757829003601f168201915b505050505081565b60a06040519081016040528060608152602001606081526020016060815260200160608152602001606081525090565b828054600181600116156101000203166002900490600052602060002090601f016020900481019282601f1061130d57805160ff191683800117855561133b565b8280016001018555821561133b579182015b8281111561133a57825182559160200191906001019061131f565b5b509050611348919061148c565b5090565b82805482825590600052602060002090810192821561139b579160200282015b8281111561139a57825182908051906020019061138a9291906112cc565b509160200191906001019061136c565b5b5090506113a891906114b1565b5090565b8280548282559060005260206000209081019282156113fb579160200282015b828111156113fa5782518290805190602001906113ea9291906112cc565b50916020019190600101906113cc565b5b50905061140891906114b1565b5090565b828054600181600116156101000203166002900490600052602060002090601f016020900481019282601f1061144d57805160ff191683800117855561147b565b8280016001018555821561147b579182015b8281111561147a57825182559160200191906001019061145f565b5b509050611488919061148c565b5090565b6114ae91905b808211156114aa576000816000905550600101611492565b5090565b90565b6114da91905b808211156114d657600081816114cd91906114dd565b506001016114b7565b5090565b90565b50805460018160011615610100020316600290046000825580601f106115035750611522565b601f016020900490600052602060002090810190611521919061148c565b5b50565b600082601f830112151561153857600080fd5b813561154b61154682611a0a565b6119dd565b9150818183526020840193506020810190508360005b838110156115915781358601611577888261159b565b845260208401935060208301925050600181019050611561565b5050505092915050565b600082601f83011215156115ae57600080fd5b81356115c16115bc82611a32565b6119dd565b915080825260208301602083018583830111156115dd57600080fd5b6115e8838284611ac4565b50505092915050565b600082601f830112151561160457600080fd5b813561161761161282611a5e565b6119dd565b9150808252602083016020830185838301111561163357600080fd5b61163e838284611ac4565b50505092915050565b6000806040838503121561165a57600080fd5b600083013567ffffffffffffffff81111561167457600080fd5b611680858286016115f1565b925050602083013567ffffffffffffffff81111561169d57600080fd5b6116a9858286016115f1565b9150509250929050565b600080600080608085870312156116c957600080fd5b600085013567ffffffffffffffff8111156116e357600080fd5b6116ef878288016115f1565b945050602085013567ffffffffffffffff81111561170c57600080fd5b611718878288016115f1565b935050604085013567ffffffffffffffff81111561173557600080fd5b61174187828801611525565b925050606085013567ffffffffffffffff81111561175e57600080fd5b61176a87828801611525565b91505092959194509250565b6000806000806080858703121561178c57600080fd5b600085013567ffffffffffffffff8111156117a657600080fd5b6117b2878288016115f1565b945050602085013567ffffffffffffffff8111156117cf57600080fd5b6117db878288016115f1565b935050604085013567ffffffffffffffff8111156117f857600080fd5b611804878288016115f1565b925050606085013567ffffffffffffffff81111561182157600080fd5b61182d878288016115f1565b91505092959194509250565b600061184482611a97565b8084526020840193508360208202850161185d85611a8a565b60005b848110156118965783830388526118788383516118a7565b925061188382611aad565b9150602088019750600181019050611860565b508196508694505050505092915050565b60006118b282611aa2565b8084526118c6816020860160208601611ad3565b6118cf81611b06565b602085010191505092915050565b600060a08301600083015184820360008601526118fa82826118a7565b9150506020830151848203602086015261191482826118a7565b9150506040830151848203604086015261192e82826118a7565b915050606083015184820360608601526119488282611839565b915050608083015184820360808601526119628282611839565b9150508091505092915050565b61197881611aba565b82525050565b6000602082019050818103600083015261199881846118a7565b905092915050565b600060208201905081810360008301526119ba81846118dd565b905092915050565b60006020820190506119d7600083018461196f565b92915050565b6000604051905081810181811067ffffffffffffffff82111715611a0057600080fd5b8060405250919050565b600067ffffffffffffffff821115611a2157600080fd5b602082029050602081019050919050565b600067ffffffffffffffff821115611a4957600080fd5b601f19601f8301169050602081019050919050565b600067ffffffffffffffff821115611a7557600080fd5b601f19601f8301169050602081019050919050565b6000602082019050919050565b600081519050919050565b600081519050919050565b6000602082019050919050565b6000819050919050565b82818337600083830152505050565b60005b83811015611af1578082015181840152602081019050611ad6565b83811115611b00576000848401525b50505050565b6000601f19601f830116905091905056fea265627a7a7230582009df724dd9848d94940b863ff720982b22c4baf595abe8dc947c68b8e0e486d36c6578706572696d656e74616cf50037",
  "source": "pragma solidity >=0.4.22 <0.9.0;\r\npragma experimental ABIEncoderV2;\r\n\r\ncontract Vaccine {\r\n    string public message;\r\n    \r\n    struct User {\r\n        string name;\r\n        string birthday;\r\n        string vaccine_type;\r\n        string[] vaxtypes;\r\n        string[] vaxdates;\r\n    }\r\n    \r\n    User[] records;\r\n\r\n    function addVaxxedUser(string memory name, string memory birthday, string[] memory vaxtypes, string[] memory vaxdates) public {\r\n        User memory newUser;\r\n        newUser.name = name;\r\n        newUser.birthday = birthday;\r\n        newUser.vaxtypes = new string[](vaxtypes.length);\r\n        for(uint i = 0; i< vaxtypes.length;i++){\r\n            newUser.vaxtypes[i] = vaxtypes[i];\r\n        }\r\n        newUser.vaxdates = new string[](vaxdates.length);\r\n        for(uint i = 0; i< vaxdates.length;i++){\r\n            newUser.vaxdates[i] = vaxdates[i];\r\n        }\r\n        records.push(newUser);\r\n    }\r\n\r\n    function addVaxToUser(string memory name, string memory birthday, string memory vaxtype, string memory vaxdate) public {\r\n        uint i = findUserIndex(name, birthday);\r\n        \r\n        string[] memory temp_vaxtypes = new string[](records[i].vaxtypes.length);\r\n        for(uint j = 0; j < records[i].vaxtypes.length; j++){\r\n            temp_vaxtypes[j] = records[i].vaxtypes[j];\r\n        }\r\n        records[i].vaxtypes = new string[](temp_vaxtypes.length+1);\r\n        for(uint j = 0; j < temp_vaxtypes.length; j++){\r\n            records[i].vaxtypes[j] = temp_vaxtypes[j];\r\n        }\r\n        records[i].vaxtypes[records[i].vaxtypes.length-1] = vaxtype;\r\n\r\n        string[] memory temp_vaxdates = new string[](records[i].vaxdates.length);\r\n        for(uint j = 0; j < records[i].vaxdates.length; j++){\r\n            temp_vaxdates[j] = records[i].vaxdates[j];\r\n        }\r\n        records[i].vaxdates = new string[](temp_vaxdates.length+1);\r\n        for(uint j = 0; j < temp_vaxdates.length; j++){\r\n            records[i].vaxdates[j] = temp_vaxdates[j];\r\n        }\r\n        records[i].vaxdates[records[i].vaxdates.length-1] = vaxdate;\r\n\r\n    }\r\n    \r\n    // Add first vaccine date?\r\n    // If multiple matches, return all matches?\r\n    function findUser(string memory name, string memory birthday) public view returns (User memory){\r\n        User memory ret;\r\n        for (uint i=0; i<records.length; i++){\r\n            if (keccak256(abi.encodePacked((name))) == keccak256(abi.encodePacked(records[i].name)) && \r\n                keccak256(abi.encodePacked((birthday))) == keccak256(abi.encodePacked(records[i].birthday))){\r\n                return records[i];\r\n            }\r\n        }\r\n        return ret;\r\n    }\r\n\r\n     function findUserIndex(string memory name, string memory birthday) public view returns (uint){\r\n        for (uint i=0; i<records.length; i++){\r\n            if (keccak256(abi.encodePacked((name))) == keccak256(abi.encodePacked(records[i].name)) && \r\n                keccak256(abi.encodePacked((birthday))) == keccak256(abi.encodePacked(records[i].birthday))){\r\n                return (i);\r\n            }\r\n        }\r\n        return (0);\r\n    }\r\n    \r\n}",
  "sourcePath": "C:/Users/clark/Desktop/demo2/vaccine_app_demo/contracts/Vaccine.sol",
  "compiler": {
    "name": "solc",
    "version": "0.5.0+commit.1d4f565a.Emscripten.clang"
  },
  "schemaVersion": "3.0.1",
  "updatedAt": "2021-08-04T16:08:20.163Z",
  "devdoc": {
    "methods": {}
  },
  "userdoc": {
    "methods": {}
  }
}