{
  "contractName": "Vaccine",
  "abi": [
    {
      "constant": true,
      "inputs": [],
      "name": "message",
      "outputs": [
        {
          "name": "",
          "type": "string"
        }
      ],
      "payable": false,
      "stateMutability": "view",
      "type": "function",
      "signature": "0xe21f37ce"
    },
    {
      "constant": false,
      "inputs": [
        {
          "name": "name",
          "type": "string"
        },
        {
          "name": "birthday",
          "type": "uint256"
        },
        {
          "name": "vaccine_type",
          "type": "string"
        },
        {
          "name": "first_dose_date",
          "type": "uint256"
        },
        {
          "name": "secord_dose_date",
          "type": "uint256"
        }
      ],
      "name": "addUser",
      "outputs": [],
      "payable": false,
      "stateMutability": "nonpayable",
      "type": "function",
      "signature": "0x11cd0c8a"
    },
    {
      "constant": true,
      "inputs": [],
      "name": "getUsers",
      "outputs": [
        {
          "components": [
            {
              "name": "name",
              "type": "string"
            },
            {
              "name": "birthday",
              "type": "uint256"
            },
            {
              "name": "vaccine_type",
              "type": "string"
            },
            {
              "name": "first_dose_date",
              "type": "uint256"
            },
            {
              "name": "secord_dose_date",
              "type": "uint256"
            }
          ],
          "name": "",
          "type": "tuple[]"
        }
      ],
      "payable": false,
      "stateMutability": "view",
      "type": "function",
      "signature": "0x00ce8e3e"
    },
    {
      "constant": true,
      "inputs": [
        {
          "name": "name",
          "type": "string"
        },
        {
          "name": "birthday",
          "type": "uint256"
        }
      ],
      "name": "findUser",
      "outputs": [
        {
          "name": "",
          "type": "string"
        }
      ],
      "payable": false,
      "stateMutability": "view",
      "type": "function",
      "signature": "0xd9c8976f"
    }
  ],
  "bytecode": "0x608060405234801561001057600080fd5b50610baa806100206000396000f3fe608060405260043610610061576000357c0100000000000000000000000000000000000000000000000000000000900463ffffffff168062ce8e3e1461006657806311cd0c8a14610091578063d9c8976f146100ba578063e21f37ce146100f7575b600080fd5b34801561007257600080fd5b5061007b610122565b6040516100889190610a0f565b60405180910390f35b34801561009d57600080fd5b506100b860048036036100b39190810190610802565b6102e4565b005b3480156100c657600080fd5b506100e160048036036100dc91908101906107ae565b6103a7565b6040516100ee9190610a53565b60405180910390f35b34801561010357600080fd5b5061010c6105d1565b6040516101199190610a31565b60405180910390f35b60606001805480602002602001604051908101604052809291908181526020016000905b828210156102db578382906000526020600020906005020160a06040519081016040529081600082018054600181600116156101000203166002900480601f0160208091040260200160405190810160405280929190818152602001828054600181600116156101000203166002900480156102035780601f106101d857610100808354040283529160200191610203565b820191906000526020600020905b8154815290600101906020018083116101e657829003601f168201915b5050505050815260200160018201548152602001600282018054600181600116156101000203166002900480601f0160208091040260200160405190810160405280929190818152602001828054600181600116156101000203166002900480156102af5780601f10610284576101008083540402835291602001916102af565b820191906000526020600020905b81548152906001019060200180831161029257829003601f168201915b505050505081526020016003820154815260200160048201548152505081526020019060010190610146565b50505050905090565b6102ec61066f565b60a06040519081016040528087815260200186815260200185815260200184815260200183815250905060018190806001815401808255809150509060018203906000526020600020906005020160009091929091909150600082015181600001908051906020019061036092919061069f565b5060208201518160010155604082015181600201908051906020019061038792919061069f565b506060820151816003015560808201518160040155505050505050505050565b606060008090505b600180549050811015610591576001818154811015156103cb57fe5b9060005260206000209060050201600001604051602001808280546001816001161561010002031660029004801561043a5780601f1061041857610100808354040283529182019161043a565b820191906000526020600020905b815481529060010190602001808311610426575b505091505060405160208183030381529060405280519060200120846040516020018082805190602001908083835b60208310151561048e5780518252602082019150602081019050602083039250610469565b6001836020036101000a0380198251168184511680821785525050505050509050019150506040516020818303038152906040528051906020012014801561054157506001818154811015156104e057fe5b9060005260206000209060050201600101546040516020018082815260200191505060405160208183030381529060405280519060200120836040516020018082815260200191505060405160208183030381529060405280519060200120145b15610584576040805190810160405280600581526020017f666f756e640000000000000000000000000000000000000000000000000000008152509150506105cb565b80806001019150506103af565b506040805190810160405280600981526020017f6e6f7420666f756e64000000000000000000000000000000000000000000000081525090505b92915050565b60008054600181600116156101000203166002900480601f0160208091040260200160405190810160405280929190818152602001828054600181600116156101000203166002900480156106675780601f1061063c57610100808354040283529160200191610667565b820191906000526020600020905b81548152906001019060200180831161064a57829003601f168201915b505050505081565b60a06040519081016040528060608152602001600081526020016060815260200160008152602001600081525090565b828054600181600116156101000203166002900490600052602060002090601f016020900481019282601f106106e057805160ff191683800117855561070e565b8280016001018555821561070e579182015b8281111561070d5782518255916020019190600101906106f2565b5b50905061071b919061071f565b5090565b61074191905b8082111561073d576000816000905550600101610725565b5090565b90565b600082601f830112151561075757600080fd5b813561076a61076582610aa2565b610a75565b9150808252602083016020830185838301111561078657600080fd5b610791838284610b1d565b50505092915050565b60006107a68235610b13565b905092915050565b600080604083850312156107c157600080fd5b600083013567ffffffffffffffff8111156107db57600080fd5b6107e785828601610744565b92505060206107f88582860161079a565b9150509250929050565b600080600080600060a0868803121561081a57600080fd5b600086013567ffffffffffffffff81111561083457600080fd5b61084088828901610744565b95505060206108518882890161079a565b945050604086013567ffffffffffffffff81111561086e57600080fd5b61087a88828901610744565b935050606061088b8882890161079a565b925050608061089c8882890161079a565b9150509295509295909350565b60006108b482610adb565b808452602084019350836020820285016108cd85610ace565b60005b848110156109065783830388526108e8838351610983565b92506108f382610afc565b91506020880197506001810190506108d0565b508196508694505050505092915050565b600061092282610af1565b808452610936816020860160208601610b2c565b61093f81610b5f565b602085010191505092915050565b600061095882610ae6565b80845261096c816020860160208601610b2c565b61097581610b5f565b602085010191505092915050565b600060a08301600083015184820360008601526109a0828261094d565b91505060208301516109b56020860182610a00565b50604083015184820360408601526109cd828261094d565b91505060608301516109e26060860182610a00565b5060808301516109f56080860182610a00565b508091505092915050565b610a0981610b09565b82525050565b60006020820190508181036000830152610a2981846108a9565b905092915050565b60006020820190508181036000830152610a4b818461094d565b905092915050565b60006020820190508181036000830152610a6d8184610917565b905092915050565b6000604051905081810181811067ffffffffffffffff82111715610a9857600080fd5b8060405250919050565b600067ffffffffffffffff821115610ab957600080fd5b601f19601f8301169050602081019050919050565b6000602082019050919050565b600081519050919050565b600081519050919050565b600081519050919050565b6000602082019050919050565b6000819050919050565b6000819050919050565b82818337600083830152505050565b60005b83811015610b4a578082015181840152602081019050610b2f565b83811115610b59576000848401525b50505050565b6000601f19601f830116905091905056fea265627a7a7230582042afe3bbb87184144dc12ef6947ee70793821413f691d52170a51d618b8c52406c6578706572696d656e74616cf50037",
  "source": "pragma solidity >=0.4.22 <0.9.0;\r\npragma experimental ABIEncoderV2;\r\n\r\ncontract Vaccine {\r\n    string public message;\r\n    \r\n    struct User {\r\n        string name;\r\n        uint birthday;\r\n        string vaccine_type;\r\n        uint first_dose_date;\r\n        uint secord_dose_date;\r\n    }\r\n    \r\n    struct Vacciene{\r\n        uint dose_dates;\r\n        string vaccine_type;\r\n    }\r\n    \r\n    User[] records;\r\n    \r\n    //function addVaccience (User u, Vacciene v) public {}\r\n    \r\n    \r\n    function addUser(string memory name, uint birthday, string memory vaccine_type, uint first_dose_date, uint secord_dose_date) public {\r\n        User memory newUser = User(name, birthday, vaccine_type, first_dose_date, secord_dose_date);\r\n        records.push(newUser);\r\n    }\r\n    \r\n    // This won't work get rid of this.\r\n    // Return everyones name + vaccine type?\r\n    function getUsers() public view returns (User[] memory){\r\n        return records;\r\n    }\r\n    \r\n    // Add first vaccine date?\r\n    // If multiple matches, return all matches?\r\n    function findUser(string memory name, uint birthday) public view returns (string memory){\r\n        for (uint i=0; i<records.length; i++){\r\n            if (keccak256(abi.encodePacked((name))) == keccak256(abi.encodePacked(records[i].name)) && \r\n                keccak256(abi.encodePacked((birthday))) == keccak256(abi.encodePacked(records[i].birthday))){\r\n                return \"found\";\r\n            }\r\n        }\r\n        \r\n        return \"not found\";\r\n    }\r\n    // returns the users vax type.\r\n    //fucntion findUserVacciene{};\r\n    \r\n    \r\n    \r\n}",
  "sourcePath": "C:/Users/clark/Desktop/demo/contracts/Vaccine.sol",
  "compiler": {
    "name": "solc",
    "version": "0.5.0+commit.1d4f565a.Emscripten.clang"
  },
  "schemaVersion": "3.0.1",
  "updatedAt": "2021-08-03T16:01:24.970Z",
  "devdoc": {
    "methods": {}
  },
  "userdoc": {
    "methods": {}
  }
}